:100000000C9472000C9494000C9494000C94940042
:100010000C9494000C9494000C9494000C94940010
:100020000C9494000C9494000C9494000C94940000
:100030000C9494000C947A030C9494000C94940007
:100040000C9494000C9494000C9494000C949400E0
:100050000C9494000C9494000C9494000C949400D0
:100060000C9494000C9494000C9494000C949400C0
:100070000C9494000C9494000C9494000C949400B0
:100080000C94EF050C9494000C9494000C94940040
:100090000C9494000C9494000C9494000C94940090
:1000A0000C9494000C9494000C9494000C94940080
:1000B0000C9494000C9494000C9494000C94940070
:1000C0000C9494000C9494000C9494000C94940060
:1000D0000C9494000C9494000C9494000C94940050
:1000E0000C94940011241FBECFEFD1E2DEBFCDBF30
:1000F00000E00CBF12E0A0E0B2E0E2EEF0E200E0CF
:100100000BBF02C007900D92A031B107D9F71BBEFB
:100110001AE1A0E1B2E001C01D92AB3AB107E1F7EC
:100120000E9440030C946F100C9400008FEF81B973
:1001300082B9089582E08093700082EC8093B000D1
:1001400087E08093B10080E68093B3000895AF927A
:10015000BF92CF92DF92EF92FF920F931F93CF93B4
:10016000DF936C01E62EF42E8AE190E00E94CC022F
:100170008C01009709F462C08091100290911102E5
:10018000009739F51093110200931002C3E1D2E0F9
:10019000CE010E94B403CE0109960E94B403C5E2C9
:1001A000D2E0CE010E94B4030F2EFEE2AF2EF2E0A9
:1001B000BF2EF02DC5010E94B40387E392E00E9498
:1001C000B403D0934102C0934002B0924302A09284
:1001D0004202CE2DE110C1E0F801118E108EC68BC7
:1001E000F78AC192D1927F01CF010E94C203C80158
:1001F0000C960E94C203F80111870087138B028BB3
:1002000084E090E08C1B9109958784878689909182
:100210001202981710F48093120290E09C01220FB2
:10022000331F220F331F220F331F820F931F8D5E48
:100230009D4FB7010E94C60381E001C08FEFDF919F
:10024000CF911F910F91FF90EF90DF90CF90BF90D3
:10025000AF9008950F931F93CF93DF938B01C091BD
:100260004402D0914502C80FD91F8091100290918D
:10027000110202960E942C04E0911002F0911102EA
:10028000D383C2838091440290914502C817D90755
:1002900050F4BF016E5F7F4F809142029091430204
:1002A0000E94EF0309C0BF016E5F7F4F8091400243
:1002B000909141020E94EF030115110549F06091F0
:1002C000100270911102645F7F4FC8010E94EF031A
:1002D000DF91CF911F910F910895CF92DF92EF920E
:1002E000FF920F931F93CF93DF9380913702882360
:1002F000B9F10F2EFCE3EF2EF2E0FF2EF02D0F2EC2
:10030000F7E3CF2EF2E0DF2EF02DF894D701ED9138
:10031000FC91C681D781CE010C960E942C04789462
:100320008E010E5F1F4FC8010E942C048E89909190
:100330001202981710F48093120290E09C01220F91
:10034000331F220F331F220F331F820F931F8D5E27
:100350009D4FB8010E94C603F60180818823A9F64B
:100360000E944F0C2091460230914702821B930B52
:10037000909349028093480274C0209144023091C6
:1003800045022F5F3F4F309345022093440201976F
:1003900090934902809348022115310581F48091A0
:1003A00040029091410220914202309143023093E9
:1003B0004102209340029093430280934202E091D5
:1003C0004002F09141028081882309F44AC00580EF
:1003D000F681E02DC681D7812A813B81809144023C
:1003E000909145028217930778F43BC00580F6810F
:1003F000E02DC681D7812A813B8180914402909172
:1004000045028217930768F1F8948E010E5F1F4F23
:10041000C8010E942C048C899D89009721F0CE018F
:100420000C960E942C0478948E8990911202981751
:1004300010F48093120290E09C01220F331F220FD0
:10044000331F220F331F820F931F8D5E9D4FB80104
:100450000E94C603E0914002F0914102808188230E
:1004600029F68091480290914902009709F085CFC2
:1004700080914402909145029093470280934602F6
:1004800020911202822F90E0FC01EE0FFF1FEE0F71
:10049000FF1FEE0FFF1FE80FF91FED5EFD4F3081CC
:1004A0003323D9F4222331F447C0222319F42093B3
:1004B000120242C02150822F90E0FC01EE0FFF1F7C
:1004C000EE0FFF1FEE0FFF1FE80FF91FED5EFD4F50
:1004D0003081332351F320931202FC01EE0FFF1FF2
:1004E000EE0FFF1FEE0FFF1F8E0F9F1FFC01ED5E33
:1004F000FD4FA181B28112960D90BC91A02DB283C7
:10050000A183CF010396A817B90731F412968D91F4
:100510009C911397928381830180F281E02DA681C3
:10052000B781B0931102A0931002ED91FC91119745
:10053000CD0157966C911995DF91CF911F910F9135
:10054000FF90EF90DF90CF9008950F931F93CF937C
:10055000DF93DC011596ED91FC91169706811781CA
:10056000E8012C96CE010E942C0487E392E0BE01A4
:100570000E94C603E0911002F091110281E0D801BF
:1005800056962C9156979689291708F480E0DF91AA
:10059000CF911F910F9108950F931F93CF93DF93E6
:1005A000EC010E94490C00914A0210914B02C00FCD
:1005B000D11F88E1C030D80750F40C171D0750F444
:1005C000045B1D4FD0934B02C0934A0205C000E06C
:1005D00010E002C000E010E00E942F0D802F912F4C
:1005E000DF91CF911F910F910895089510924B02C2
:1005F00010924A02089520914A0230914B0280E005
:1006000098E1821B930B0895CF93DF930F920F9283
:10061000CDB7DEB70E944F0C9A83898304E011E0C6
:1006200082B1802782B980914C1A0E94AB098091D7
:100630004D1A0E94C10980914E1A812780934E1A4B
:10064000882369F080914C1A843619F410924C1A60
:1006500003C08F5F80934C1A82B1812782B9809149
:100660004D1A843619F410924D1A03C08F5F80938F
:100670004D1ACE01019664EF71E00E94DF0DD0CFDC
:10068000AF92BF92CF92DF92EF92FF920F930E94B0
:1006900096000E94620981E060E043E00E94010749
:1006A0009093AA1A8093A91A009739F060E070E03D
:1006B00040E050E020E00E94320784E093E060E0F8
:1006C00072E045E550E020E030E001E0EE24FF2458
:1006D000CC24DD24AA24BB240E945D0A0E94180CAD
:1006E00080E090E00F91FF90EF90DF90CF90BF906F
:1006F000AF9008951F920F920FB60F920BB60F9204
:1007000011242F933F934F935F936F937F938F9316
:100710009F93AF93BF93EF93FF9310924F1A8091E3
:10072000A91A9091AA1A60E070E04FE45AE120E023
:100730000E94FD0780914F1A813011F40E942B0511
:10074000FF91EF91BF91AF919F918F917F916F91A9
:100750005F914F913F912F910F900BBE0F900FBE65
:100760000F901F9018950895FC0103969283818342
:100770002FEF3FEF3483238396838583908787838E
:1007800010820895FC01118610860895CF93DF939F
:10079000EC01FB0189819A81DC0112962D913C913B
:1007A00013973383228329813A81358324831296D8
:1007B0002D913C911397D90115967C936E931497C4
:1007C000DC0113967C936E9312977A836983D187A9
:1007D000C08788818F5F8883DF91CF910895CF9301
:1007E000DF93AC01EB01288139818FEF2F3F380770
:1007F00021F4FA01A781B08518C0DA011396FA0135
:1008000085819681FC01808191812817390768F0E4
:1008100012960D90BC91A02D1296ED91FC9113971C
:10082000808191812817390798F71296ED91FC91F4
:100830001397FB83EA83D583C483BD83AC8313966C
:10084000DC93CE93129759874887FA0180818F5F96
:100850008083DF91CF910895FC01A281B3818481CF
:10086000958115969C938E931497A481B58182816E
:10087000938113969C938E931297A085B1851196C0
:100880008D919C9112978E179F0731F484819581E9
:1008900012969C938E931197118610868C9181509D
:1008A0008C938C91089521E1FC012083319732E2F1
:1008B0003083FC013297A3E3A083FC01339760836C
:1008C000FC0134977083FC0135971082FC01369748
:1008D0001082FC01379760E86083FC013897108232
:1008E000FC0139971082FC013A971082FC013B977A
:1008F00062E06083FC013C9763E06083FC013D970C
:1009000064E06083FC013E9765E06083FC013F97F3
:1009100066E06083FC01709767E06083FC0171977B
:1009200068E06083FC01729769E06083FC01739763
:1009300060E16083FC0174972083FC01759722E1DC
:100940002083FC01769723E12083FC01779724E143
:100950002083FC01789725E12083FC01799726E12B
:100960002083FC017A9727E12083FC017B9728E113
:100970002083FC017C9729E12083FC017D9720E204
:100980002083FC017E9721E22083FC017F97308346
:10099000FC01B09723E22083FC01B1974083FC0166
:1009A000B2975083FC01B39726E22083FC01B497F1
:1009B00027E22083FC01B59728E22083FC01B6974B
:1009C00029E22083FC01B79720E32083FC01B8973C
:1009D00021E32083899708951092990089EF8093ED
:1009E00098008BE080939100E1E7F0E080818260E5
:1009F0008083A091501AB091511ACD91CDBFDD9155
:100A0000DEBFFF91EF91DF91CF91BF91AF919F91A9
:100A10008F917F916F915F914F913F912F911F9196
:100A20000F91FF90EF90DF90CF90BF90AF909F908D
:100A30008F907F906F905F904F903F902F901F907E
:100A40000F900CBE0F900BBE0F900FBE0F9008952D
:100A500081E0089508950F920FB6F8940F920BB6A7
:100A60000F920CB60F921F9211242F923F924F9229
:100A70005F926F927F928F929F92AF92BF92CF922E
:100A8000DF92EF92FF920F931F932F933F934F9319
:100A90005F936F937F938F939F93AF93BF93CF9306
:100AA000DF93EF93FF93A091501AB091511A0DB6B6
:100AB0000D920EB60D920E94290EA091501AB0917F
:100AC000511ACD91CDBFDD91DEBFFF91EF91DF9146
:100AD000CF91BF91AF919F918F917F916F915F91D6
:100AE0004F913F912F911F910F91FF90EF90DF90C9
:100AF000CF90BF90AF909F908F907F906F905F90BE
:100B00004F903F902F901F900F900CBE0F900BBEF8
:100B10000F900FBE0F9008950F920FB6F8940F929A
:100B20000BB60F920CB60F921F9211242F923F9288
:100B30004F925F926F927F928F929F92AF92BF92ED
:100B4000CF92DF92EF92FF920F931F932F933F93D9
:100B50004F935F936F937F938F939F93AF93BF93C5
:100B6000CF93DF93EF93FF93A091501AB091511A56
:100B70000DB60D920EB60D920E94610C0E94290EC8
:100B8000A091501AB091511ACD91CDBFDD91DEBF29
:100B9000FF91EF91DF91CF91BF91AF919F918F9195
:100BA0007F916F915F914F913F912F911F910F9185
:100BB000FF90EF90DF90CF90BF90AF909F908F907D
:100BC0007F906F905F904F903F902F901F900F906D
:100BD0000CBE0F900BBE0F900FBE0F9008950E9499
:100BE0008C051895CF93DF93DC01CD91DC911197A3
:100BF000209721F15C964C915C9716962D913C9133
:100C00001797240F311D17963C932E931697129623
:100C1000ED91FC9113972E173F0720F01796DC9368
:100C2000CE93169716963C91169717962C91862F71
:100C3000972F632F722F50E00E945010DF91CF91B9
:100C400008950F931F93CF93DF93EC010FB6F894A1
:100C50000F928E8D1816C4F48989882329F414C044
:100C60008989882321F410C08E010F5E1F4FC801AF
:100C70000E94020F882311F00E94930F8E8D8150E5
:100C80008E8F8E8D181664F38FEF8E8F0F900FBEA0
:100C90000FB6F8940F928D8D1816C4F488858823AA
:100CA00029F414C08885882321F410C08E01085FC0
:100CB0001F4FC8010E94020F882311F00E94930F5A
:100CC0008D8D81508D8F8D8D181664F38FEF8D8FE4
:100CD0000F900FBEDF91CF911F910F910895CF9389
:100CE000DF93EC012C8D222359F4888199810097A0
:100CF000E1F58A819B810E940F101B821A8235C008
:100D00004423B9F48C819D81422F50E00E94501001
:100D10002C8D8C819D81820F911D9D838C832A81D6
:100D20003B818217930708F1888199819D838C8389
:100D30001CC08E819F81422F50E00E9450104C8D2C
:100D400050E0509541955F4F8E819F81840F951F94
:100D50009F838E83288139818217930730F48A819B
:100D60009B81480F591F5F834E838A8D8F5F8A8FC7
:100D7000DF91CF910895CF93DF93EC010FB6F894F4
:100D80000F92488159812B8D30E0EC8DF0E02E9F41
:100D9000C0012F9F900D3E9F900D1124840F951F31
:100DA0009B838A831A8E5D834C83C9010197E89FD8
:100DB0009001E99F300DF89F300D1124240F351F4D
:100DC0003F832E838FEF8D8F8E8F662361F488850E
:100DD000882389F0CE0108960E94020F813059F4D1
:100DE0000E942B0508C0CE0108960E94B403CE01D4
:100DF00041960E94B4030F900FBE81E0DF91CF9126
:100E000008950F931F93CF93DF93182F062F8823F6
:100E1000F9F08FE190E00E94CC02EC010097D9F04C
:100E2000019FC001112401960E94CC0299838883FE
:100E3000009741F01B8F0C8FCE0161E00E94BB0632
:100E4000CE010BC0CE010E94F50280E090E005C00B
:100E500080E090E002C080E090E0DF91CF911F91B0
:100E60000F9108958F929F92BF92CF92DF92EF924F
:100E7000FF920F931F93CF93DF9300D00F920F92A7
:100E8000CDB7DEB78C014B015D834C83B22EFF24BE
:100E9000EE24E394CC24DD246894C3F8C80ED91E54
:100EA0000FB6F8940F92F801928D838D9817A8F4DD
:100EB000C801B4014B2D0E946F06F8018189882377
:100EC00041F0C80141960E94020F813011F40E9446
:100ED0002B050F900FBE81E052C08C819D81009741
:100EE00021F40F900FBE80E04AC0FF2029F4CE010C
:100EF00001960E944A0FFE2C0F900FBE0E94490CD3
:100F00000FB6F8940F92F801858D8F3F09F4158E76
:100F1000F801868D8F3F09F4168E0F900FBECE011B
:100F20000196BE016C5F7F4F0E94550F882309F523
:100F30000FB6F8940F92F801928D0F900FBEF80142
:100F4000838D981781F46C817D81C6010E94D60E35
:100F5000C8010E9421060E942F0D882309F0A0CF0E
:100F60000E942B059DCFC8010E9421060E942F0DD3
:100F700097CFC8010E9421060E942F0D80E00F909C
:100F80000F900F900F900F90DF91CF911F910F91C5
:100F9000FF90EF90DF90CF90BF909F908F9008953B
:100FA000CF93DF938FE190E00E94CC02EC01009799
:100FB000F9F01B821A82198218821D821C821F82FC
:100FC0001E821A8E81E08B8F1C8E8FEF8D8F8E8FFD
:100FD000CE0108960E94B403CE0141960E94B4034C
:100FE000CE0160E070E040E050E020E00E94320777
:100FF0008C2F9D2FDF91CF9108950F931F93CF9347
:10100000DF93EC018A019A8D8B8D9817E0F4CE0165
:10101000422F0E946F068E8D8F3F81F4898988232D
:10102000A1F0CE0141960E94020F882381F00115A4
:10103000110579F081E0F80180830CC08E8D8F5FFF
:101040008E8F81E007C080E005C081E003C081E0B1
:1010500001C081E0DF91CF911F910F9108958F9290
:101060009F92BF92CF92DF92EF92FF920F931F93C6
:10107000CF93DF9300D00F920F92CDB7DEB78C01E4
:101080004B015D834C83B22EFF24EE24E3940F2E9C
:10109000F1E1CF2EDD24F02DC80ED91E0FB6F89445
:1010A0000F92F801828D8823A1F1E680F780C801B4
:1010B000B4010E94F205BB20D1F4F801828D815069
:1010C000828F80819181009729F40E94B00FF801EE
:1010D00093838283F80180858823B9F0C80108963C
:1010E0000E94020F813089F40E942B050EC0F80186
:1010F000F782E6828189882341F0C80141960E94E7
:10110000020F882311F00E942B050F900FBE81E083
:101110005FC08C819D81009721F40F900FBE80E00D
:1011200057C0FF2029F4CE0101960E944A0FFE2CE1
:101130000F900FBE0E94490C0FB6F8940F92F80161
:10114000858D8F3F09F4158EF801868D8F3F09F448
:10115000168E0F900FBECE010196BE016C5F7F4FC1
:101160000E94550F882371F50FB6F8940F92F8017D
:10117000828D0F900FBE8823F9F4F8018081918150
:10118000009751F40FB6F8940F92F8018281938181
:101190000E94B50F0F900FBE6C817D81C6010E9429
:1011A000D60EC8010E9421060E942F0D882309F047
:1011B00075CF0E942B0572CFC8010E9421060E94A4
:1011C0002F0D6CCFC8010E9421060E942F0D80E0D8
:1011D0000F900F900F900F900F90DF91CF911F9174
:1011E0000F91FF90EF90DF90CF90BF909F908F90E6
:1011F00008950F931F93CF93DF93EC018A018A8D9B
:101200008823F1F0CE010E94F2058A8D81508A8FE9
:101210008D8D8F3F81F488858823A1F0CE010896BB
:101220000E94020F882381F00115110579F081E0F9
:10123000F80180830CC08D8D8F5F8D8F81E007C09A
:1012400080E005C081E003C081E001C081E0DF9162
:10125000CF911F910F9108950FB6F8940F92FC0152
:10126000828D0F900FBE0895FC01828D0895CF935B
:10127000DF93EC01888199810E94F502CE010E94E2
:10128000F502DF91CF910895FC01928D81E09111DB
:1012900080E00895FC01228D81E0938D291380E088
:1012A000089528988EBD0DB407FEFDCF289A0895A5
:1012B000CF93C82F8AE70E9451098C2F0E945109B1
:1012C000CF91089587E084B9289A83E58CBD81E0A9
:1012D0008DBD8AE00E945809089586E70E94510951
:1012E00008951F93CF93DF93C82FD92F14E08991CE
:1012F0000E9451091150D9F7DF91CF911F910895A4
:10130000CF93C62F823089F0833018F4813009F5ED
:1013100005C0833089F08430E1F415C081E00E947B
:1013200051098C2F0E94510914C082E00E9451097A
:101330008C2F0E9451090DC083E00E9451098C2F0F
:101340000E94510906C084E00E9451098C2F0E941E
:101350005109CF910895CF93C82F843680F481E04E
:101360000E9451098C2F6AE00E944410C92F0E94EC
:10137000510982E00E9451098C2F0E945109CF919E
:101380000895CF93DF938436E0F4282F30E02A507D
:1013900030404AF0C82FD0E0CA50DF5F8C2F90E079
:1013A0000A97D2F702C0C82FD0E083E00E9451090B
:1013B0008D2F0E94510984E00E9451098C2F0E94B8
:1013C0005109DF91CF9108958230E1F0833028F404
:1013D000882351F0813089F50EC0843009F18430C2
:1013E000C0F0853051F523C087E70E94510981E0A4
:1013F0000E945109089587E70E94510982E00E94E6
:101400005109089587E70E94510984E00E9451091B
:10141000089587E70E94510988E00E9451090895C4
:1014200087E70E94510980E10E945109089587E7EA
:101430000E94510980E20E9451090895CF93DF93E1
:10144000EC01E091501AF091511A938382838091BC
:10145000581A9091591AC817D90768F480915B1AE5
:1014600090915C1A6091501A7091511A6E5F7F4F83
:101470000E94EF0317C080915D1A90915E1A6091EF
:10148000501A7091511A6E5F7F4F0E94EF03809146
:101490000E0290910F02C817D90720F4D0930F02C3
:1014A000C0930E02DF91CF910895C1E6DAE1888101
:1014B0008230E8F30E942B05FACF4F925F926F9231
:1014C0007F928F929F92BF92CF92DF92EF92FF9284
:1014D0000F931F93CF93DF932C014B01EA01390146
:1014E000B02E8AE290E00E94CC028C01009709F4B1
:1014F000E3C0C114D10409F0F4C0CE010E94CC02B3
:101500006C01F801908F878B009729F4C8010E9425
:10151000F5028FEFD6C0C60165EA70E0AE010E9409
:1015200059109E0121503040F8018789908D6C013F
:10153000C20ED31EC8014996B40140E150E00E949A
:101540006010F80110A6CB2DF3E0FB1508F4C3E002
:10155000F801C68BC1A788249924689481F8800E6D
:10156000911EC4010E94C203C8010C960E94C203CE
:10157000F8011187008784E090E08C1B9109958722
:101580008487138B028BC601B201A3010E9453040E
:10159000F80191838083E114F10419F0F7011183BC
:1015A00000830FB6F8940F9280915A1A8F5F809340
:1015B0005A1A8091501A9091511A0097D9F51093A8
:1015C000511A0093501A80915A1A813009F041C083
:1015D000C0E0D0E0CE01880F991F880F991F880FB7
:1015E000991F8C0F9D1F8F59954E0E94B403219611
:1015F000C430D10579F7C5E8DAE1CE010E94B40321
:101600000F2EFEE8EF2EFAE1FF2EF02DC7010E940B
:10161000B40387E99AE10E94B40380EA9AE10E9448
:10162000B403D0935E1AC0935D1AF0925C1AE092F4
:101630005B1A0FC08091561A882359F4E091501A12
:10164000F091511A8689B81620F01093511A009320
:10165000501AF801868990915F1A981710F48093B8
:101660005F1A9091601A9F5F9093601A9091571A39
:10167000981710F48093571A90E09C01220F331FA3
:10168000220F331F220F331F820F931F8F59954E46
:10169000B4010E94C6030F900FBE8091561A882392
:1016A00069F0E091501AF091511A86898B1540F437
:1016B0000E942B0581E005C08FEF03C081E001C0CF
:1016C00081E0DF91CF911F910F91FF90EF90DF901C
:1016D000CF90BF909F908F907F906F905F904F9032
:1016E0000895FC01D08EC78A16CFFC0182859385B0
:1016F0002AE1803A920761F4248935898AE1273901
:10170000380741F081E02115310529F080E0089586
:1017100080E0089580E008950F931F93CF93DF93A7
:10172000EC010097B9F18091501A9091511AC817A5
:10173000D90781F10FB6F8940F92CE010E94750B74
:10174000813031F58E010E5F1F4FC8010E942C04BD
:101750008E899091571A981710F48093571A90E039
:101760009C01220F331F220F331F220F331F820FC2
:10177000931F8F59954EB8010E94C603E091501AED
:10178000F091511A9E898689981710F00E942B05B6
:101790000F900FBEDF91CF911F910F910895EF929F
:1017A000FF921F93CF93DF93EC010E94750B813062
:1017B000B9F58091551A882351F5E091501AF091AE
:1017C000511A11E09E898689981708F410E0EE24DA
:1017D000FF246894E1F8EC0EFD1EC7010E942C0462
:1017E0008E899091571A981710F48093571A90E0A9
:1017F0009C01220F331F220F331F220F331F820F32
:10180000931F8F59954EB7010E94C6030AC0BE01AF
:10181000645F7F4F87E99AE10E94C60310E001C030
:1018200010E0812FDF91CF911F91FF90EF900895ED
:10183000AF92BF92CF92DF92EF92FF920F9385E526
:101840009AE069E072E045E550E020E030E000E039
:10185000EE24FF24CC24DD24AA24BB240E945D0AAC
:10186000813049F4F8948093561A1092591A1092C4
:10187000581A0E94EC040F91FF90EF90DF90CF90E8
:10188000BF90AF900895F8941092561A0E942A05BE
:1018900008958091551A8F5F8093551A08950FB659
:1018A000F8940F928091581A9091591A0F900FBE88
:1018B00008958091581A9091591A089580915A1A52
:1018C00008950F931F93CF93DF938091551A882328
:1018D00009F0B3C08091581A9091591A01969093CB
:1018E000591A8093581A8091581A9091591A009752
:1018F00099F580915D1A90915E1A20915B1A309152
:101900005C1A30935E1A20935D1A90935C1A809350
:101910005B1A8091521A8F5F8093521AE0915D1A80
:10192000F0915E1A8081882339F48FEF9FEF9093B6
:101930000F0280930E0210C0E0915D1AF0915E1AC2
:101940000580F681E02D0680F781E02D828193816C
:1019500090930F0280930E022091581A3091591AD9
:1019600080910E0290910F022817390708F46CC07D
:10197000E0915D1AF0915E1A8081882399F0E091E0
:101980005D1AF0915E1A0580F681E02DC681D7813F
:101990008A819B812091581A3091591A281739074A
:1019A000F8F419C08FEF9FEF90930F0280930E020F
:1019B0004BC0E0915D1AF0915E1A0580F681E02D32
:1019C000C681D7818A819B812091581A3091591AFA
:1019D0002817390728F490930F0280930E0234C021
:1019E0008E010E5F1F4FC8010E942C048C899D89B7
:1019F000009721F0CE010C960E942C048E899091C4
:101A0000571A981710F48093571A90E09C01220FF0
:101A1000331F220F331F220F331F820F931F8F5943
:101A2000954EB8010E94C603E0915D1AF0915E1ACE
:101A30008081882309F0BDCFB5CF8091541A8F5F84
:101A40008093541A0E94B3038091541A882311F48E
:101A50000E94B303DF91CF911F910F910895AF9230
:101A6000BF92CF92DF92EF92FF920F931F93CF938B
:101A7000DF930FB6F8940F928091551A815080939E
:101A8000551A8091551A882309F069C080915A1A15
:101A9000882381F567C0D601ED91FC91C681D7817D
:101AA000CE010C960E942C048E010E5F1F4FC801C0
:101AB0000E942C048E899091571A981710F48093E5
:101AC000571A90E09C01220F331F220F331F220F61
:101AD000331F820F931F8F59954EB8010E94C60382
:101AE000E091501AF091511A9E898689981788F0D2
:101AF000BA2C0FC0BB240F2EF7E9EF2EFAE1FF2E10
:101B0000F02D0F2EFCE9CF2EFAE1DF2EF02DAA24C6
:101B1000A394F7018081882309F0BDCF8091541AE6
:101B2000882381F08091541A882399F00E94610CD7
:101B30008091541A81508093541A8091541A8823AA
:101B4000A9F707C0F1E0BF1621F08091531A813048
:101B500041F41092531A0E942B0581E003C080E0EB
:101B600001C080E00F900FBEDF91CF911F910F91C8
:101B7000FF90EF90DF90CF90BF90AF900895CF93FC
:101B8000DF93EC010097B1F00E94490C8091581A44
:101B90009091591AC80FD91F8091501A9091511ADB
:101BA00002960E942C04CE010E941E0A0E942F0D54
:101BB000882311F40E942B05DF91CF9108950F9394
:101BC0001F93CF93DF938C01EB010E94490CF80126
:101BD00080819181C80FD91F2091581A3091591ACC
:101BE0002817390768F4C817D90750F58091581A93
:101BF0009091591AD183C0838C179D07B0F40BC004
:101C0000C817D907C8F08091581A9091591A8C17A3
:101C10009D0790F015C08091501A9091511A02962C
:101C20000E942C04CE010E941E0A0E942F0D8823C0
:101C300059F40E942B0508C0F801D183C083EBCF73
:101C4000F801D183C083F1CFDF91CF911F910F9124
:101C500008958091551A882399F48091571A90E03D
:101C6000FC01EE0FFF1FEE0FFF1FEE0FFF1F8E0F89
:101C70009F1FFC01EF59F54E8081882329F01BC07E
:101C800081E08093531A08958091571A8150809370
:101C9000571A8091571A90E0FC01EE0FFF1FEE0FCC
:101CA000FF1FEE0FFF1F8E0F9F1FFC01EF59F54E18
:101CB0008081882349F38091571A90E0FC01EE0F50
:101CC000FF1FEE0FFF1FEE0FFF1FE80FF91FEF5969
:101CD000F54EA181B28112960D90BC91A02DB283D8
:101CE000A183CF010396A817B90731F412968D91FD
:101CF0009C911397928381830180F281E02D8681EC
:101D000097819093511A8093501A0895EF92FF9201
:101D10000F931F93CF93DF937C010FB6F8940F922C
:101D20008091501A9091511AE816F90621F0E114A9
:101D3000F10441F402C0EE24FF24C091501AD09166
:101D4000511A01C0E7018E010E5F1F4FC8010E94AA
:101D50002C048C899D89009721F0CE010C960E945D
:101D60002C0480EA9AE1B8010E94C6030F900FBECE
:101D7000E114F104A1F48091561A882319F00E940D
:101D80002B050DC09091A01A80915A1A981729F42A
:101D90001092511A1092501A02C00E94290EDF911F
:101DA000CF911F910F91FF90EF900895CF93DF9304
:101DB000EB016091501A7091511A645F7F4F0E943D
:101DC000EF038091501A9091511A02960E942C04B0
:101DD0008FEFCF3FD80759F46091501A7091511A84
:101DE0006E5F7F4F80EA9AE10E94C60308C080912F
:101DF000581A9091591A8C0F9D1F0E941E0ADF914C
:101E0000CF9108950F931F93CF93DF93DC01159625
:101E1000ED91FC91169706811781E8012C96CE0171
:101E20000E942C048091551A8823E9F4E801229637
:101E3000CE010E942C04F80186899091571A9817B8
:101E400010F48093571A90E09C01220F331F220F49
:101E5000331F220F331F820F931F8F59954EBE01E0
:101E60000E94C60305C087E99AE1BE010E94C6032D
:101E7000E091501AF091511A81E0D80156962C91B8
:101E800056979689291708F480E0DF91CF911F912A
:101E90000F910895FC018091521A80838091581A05
:101EA0009091591A928381830895FC01DB010FB64A
:101EB000F8940F924D915C9111976FEF4F3F560739
:101EC00051F18091521A9081981749F02091581A37
:101ED0003091591A8181928128173907F0F4809145
:101EE000581A9091591A21813281821B930B8417C1
:101EF0009507A8F48091581A9091591AB901681B56
:101F0000790BCB01840F951F8D939C93CF010E9479
:101F10004A0F80E005C080E003C081E001C081E09D
:101F20000F900FBE089581E08093531A0895009793
:101F300029F4E091501AF091511A01C0FC01078870
:101F4000F08DE02D8081853A41F4319680E090E07B
:101F500001962191253AE1F3089580E090E00895FB
:101F60008091501A9091511A08950F931F93CF9317
:101F7000DF93EC01009709F44DC08E89E091501A6F
:101F8000F091511A9689891708F044C0E091501ACF
:101F9000F091511A968924E030E0291B31093D87E0
:101FA0002C8790E09C01220F331F220F331F220F3A
:101FB000331F820F931F8F59954E2A853B85281713
:101FC000390711F58E010E5F1F4FC8010E942C04C6
:101FD000E091501AF091511A86898E8B9091571A80
:101FE000981710F48093571A90E09C01220F331F2A
:101FF000220F331F220F331F820F931F8F59954ECD
:10200000B8010E94C60306C0E091501AF091511A1F
:1020100086898E8BDF91CF911F910F9108950F9339
:102020001F93CF93DF93EC01009749F19E8989A517
:10203000981729F18E010E5F1F4FC8010E942C04D2
:1020400049A54E8B242F30E084E090E0821B930B57
:102050009D878C878091571A841710F44093571AE4
:10206000C901880F991F880F991F880F991F280F82
:10207000391FC9018F59954EB8010E94C603DF91DF
:10208000CF911F910F910895991B79E004C0991F7A
:10209000961708F0961B881F7A95C9F780950895C2
:1020A000FB01DC0102C001900D9241505040D8F775
:1020B0000895DC0101C06D9341505040E0F7089550
:1020C000FB01DC014150504048F001900D9200208E
:1020D000C9F701C01D9241505040E0F70895F894AF
:0220E000FFCF30
:1020E200544D52205461736B0049444C4500FFFF2C
:00000001FF
