:100000000C9472000C9494000C9494000C94940042
:100010000C9494000C9494000C9494000C94940010
:100020000C9494000C9494000C9494000C94940000
:100030000C9494000C947A030C9494000C94940007
:100040000C9494000C9494000C9494000C949400E0
:100050000C9494000C9494000C9494000C949400D0
:100060000C9494000C9494000C9494000C949400C0
:100070000C9494000C9494000C9494000C949400B0
:100080000C940B060C9494000C9494000C94940023
:100090000C9494000C9494000C9494000C94940090
:1000A0000C9494000C9494000C9494000C94940080
:1000B0000C9494000C9494000C9494000C94940070
:1000C0000C9494000C9494000C9494000C94940060
:1000D0000C9494000C9494000C9494000C94940050
:1000E0000C94940011241FBECFEFD1E2DEBFCDBF30
:1000F00000E00CBF12E0A0E0B2E0EAE9F0E200E0CC
:100100000BBF02C007900D92A031B107D9F71BBEFB
:100110001AE1A0E1B2E001C01D92AD3AB107E1F7EA
:100120000E9440030C944B100C9400008FEF81B997
:1001300082B9089582E08093700082EC8093B000D1
:1001400087E08093B1008DE08093B3000895AF9273
:10015000BF92CF92DF92EF92FF920F931F93CF93B4
:10016000DF936C01E62EF42E8AE190E00E94CC022F
:100170008C01009709F462C08091100290911102E5
:10018000009739F51093110200931002C3E1D2E0F9
:10019000CE010E94D003CE0109960E94D003C5E291
:1001A000D2E0CE010E94D0030F2EFEE2AF2EF2E08D
:1001B000BF2EF02DC5010E94D00387E392E00E947C
:1001C000D003D0934102C0934002B0924302A09268
:1001D0004202CE2DE110C1E0F801118E108EC68BC7
:1001E000F78AC192D1927F01CF010E94DE03C8013C
:1001F0000C960E94DE03F80111870087138B028B97
:1002000084E090E08C1B9109958784878689909182
:100210001202981710F48093120290E09C01220FB2
:10022000331F220F331F220F331F820F931F8D5E48
:100230009D4FB7010E94E20381E001C08FEFDF9183
:10024000CF911F910F91FF90EF90DF90CF90BF90D3
:10025000AF9008950F931F93CF93DF938B01C091BD
:100260004402D0914502C80FD91F8091100290918D
:10027000110202960E944804E0911002F0911102CE
:10028000D383C2838091440290914502C817D90755
:1002900050F4BF016E5F7F4F809142029091430204
:1002A0000E940B0409C0BF016E5F7F4F8091400226
:1002B000909141020E940B040115110549F06091D3
:1002C000100270911102645F7F4FC8010E940B04FD
:1002D000DF91CF911F910F910895CF92DF92EF920E
:1002E000FF920F931F93CF93DF9380913702882360
:1002F000B9F10F2EFCE3EF2EF2E0FF2EF02D0F2EC2
:10030000F7E3CF2EF2E0DF2EF02DF894D701ED9138
:10031000FC91C681D781CE010C960E944804789446
:100320008E010E5F1F4FC8010E9448048E89909174
:100330001202981710F48093120290E09C01220F91
:10034000331F220F331F220F331F820F931F8D5E27
:100350009D4FB8010E94E203F60180818823A9F62F
:100360000E942B0C2091460230914702821B930B76
:10037000909349028093480274C0209144023091C6
:1003800045022F5F3F4F309345022093440201976F
:1003900090934902809348022115310581F48091A0
:1003A00040029091410220914202309143023093E9
:1003B0004102209340029093430280934202E091D5
:1003C0004002F09141028081882309F44AC00580EF
:1003D000F681E02DC681D7812A813B81809144023C
:1003E000909145028217930778F43BC00580F6810F
:1003F000E02DC681D7812A813B8180914402909172
:1004000045028217930768F1F8948E010E5F1F4F23
:10041000C8010E9448048C899D89009721F0CE0173
:100420000C960E94480478948E8990911202981735
:1004300010F48093120290E09C01220F331F220FD0
:10044000331F220F331F820F931F8D5E9D4FB80104
:100450000E94E203E0914002F091410280818823F2
:1004600029F68091480290914902009709F085CFC2
:1004700080914402909145029093470280934602F6
:1004800020911202822F90E0FC01EE0FFF1FEE0F71
:10049000FF1FEE0FFF1FE80FF91FED5EFD4F3081CC
:1004A0003323D9F4222331F447C0222319F42093B3
:1004B000120242C02150822F90E0FC01EE0FFF1F7C
:1004C000EE0FFF1FEE0FFF1FE80FF91FED5EFD4F50
:1004D0003081332351F320931202FC01EE0FFF1FF2
:1004E000EE0FFF1FEE0FFF1F8E0F9F1FFC01ED5E33
:1004F000FD4FA181B28112960D90BC91A02DB283C7
:10050000A183CF010396A817B90731F412968D91F4
:100510009C911397928381830180F281E02DA681C3
:10052000B781B0931102A0931002ED91FC91119745
:10053000CD0157966C911995DF91CF911F910F9135
:10054000FF90EF90DF90CF9008950F931F93CF937C
:10055000DF93DC011596ED91FC91169706811781CA
:10056000E8012C96CE010E94480487E392E0BE0188
:100570000E94E203E0911002F091110281E0D801A3
:1005800056962C9156979689291708F480E0DF91AA
:10059000CF911F910F9108950F931F93CF93DF93E6
:1005A000EC010E94250C00914A0210914B02C00FF1
:1005B000D11F88E1C030D80750F40C171D0750F444
:1005C000045B1D4FD0934B02C0934A0205C000E06C
:1005D00010E002C000E010E00E940B0D802F912F70
:1005E000DF91CF911F910F910895089510924B02C2
:1005F00010924A02089520914A0230914B0280E005
:1006000098E1821B930B0895CF93DF930F920F9283
:10061000CDB7DEB70E942B0C9A83898311E004E0EA
:1006200080914C1A0E94C70980914D1A0E94D509E9
:1006300080914E1A812780934E1A882369F082B1E7
:10064000812782B980914C1A833619F410924C1A82
:1006500003C08F5F80934C1A82B1802782B980914A
:100660004D1A833619F410924D1A03C08F5F809390
:100670004D1ACE01019662E370E00E94BB0DD0CF0F
:10068000AF92BF92CF92DF92EF92FF920F930E94B0
:1006900096000E947E0981E060E043E00E941D0711
:1006A0009093AC1A8093AB1A009739F060E070E039
:1006B00040E050E020E00E944E0784E093E060E0DC
:1006C00072E045E550E020E030E001E0EE24FF2458
:1006D000CC24DD24AA24BB240E94390A0E94F40BF6
:1006E00080E090E00F91FF90EF90DF90CF90BF906F
:1006F000AF9008951F920F920FB60F920BB60F9204
:1007000011242F933F934F935F936F937F938F9316
:100710009F93AF93BF93EF93FF9310924F1A8091E3
:10072000AB1A9091AC1A60E070E04FE45AE120E01F
:100730000E94190880914F1A813011F40E944705D8
:10074000FF91EF91BF91AF919F918F917F916F91A9
:100750005F914F913F912F910F900BBE0F900FBE65
:100760000F901F9018958091501A9091511A0196F0
:100770009093511A8093501A21E0843F920721F4FC
:1007800080E00E94F009089523E0883E920739F442
:100790001092511A1092501A80E10E94F0090895A7
:1007A000FC010396928381832FEF3FEF34832383F1
:1007B000968385839087878310820895FC01118634
:1007C00010860895CF93DF93EC01FB0189819A8114
:1007D000DC0112962D913C9113973383228329815A
:1007E0003A813583248312962D913C911397D90138
:1007F00015967C936E931497DC0113967C936E93FD
:1008000012977A836983D187C08788818F5F8883B5
:10081000DF91CF910895CF93DF93AC01EB01288155
:1008200039818FEF2F3F380721F4FA01A781B08576
:1008300018C0DA011396FA0185819681FC01808146
:1008400091812817390768F012960D90BC91A02D60
:100850001296ED91FC9113978081918128173907A9
:1008600098F71296ED91FC911397FB83EA83D58359
:10087000C483BD83AC831396DC93CE9312975987C0
:100880004887FA0180818F5F8083DF91CF9108953F
:10089000FC01A281B3818481958115969C938E93EE
:1008A0001497A481B5818281938113969C938E9332
:1008B0001297A085B18511968D919C9112978E17F4
:1008C0009F0731F48481958112969C938E931197A2
:1008D000118610868C9181508C938C91089521E122
:1008E000FC012083319732E23083FC013297A3E38D
:1008F000A083FC0133976083FC0134977083FC0173
:1009000035971082FC0136971082FC01379760E81A
:100910006083FC0138971082FC0139971082FC013A
:100920003A971082FC013B9762E06083FC013C97A0
:1009300063E06083FC013D9764E06083FC013E97C7
:1009400065E06083FC013F9766E06083FC0170977F
:1009500067E06083FC01719768E06083FC01729737
:1009600069E06083FC01739760E16083FC01749728
:100970002083FC01759722E12083FC01769723E117
:100980002083FC01779724E12083FC01789725E1FF
:100990002083FC01799726E12083FC017A9727E1E7
:1009A0002083FC017B9728E12083FC017C9729E1CF
:1009B0002083FC017D9720E22083FC017E9721E2C9
:1009C0002083FC017F973083FC01B09723E22083D2
:1009D000FC01B1974083FC01B2975083FC01B397AF
:1009E00026E22083FC01B49727E22083FC01B5971F
:1009F00028E22083FC01B69729E22083FC01B79707
:100A000020E32083FC01B89721E320838997089590
:100A10001092990089EF809398008BE08093910069
:100A2000E1E7F0E0808182608083A091521AB0916A
:100A3000531ACD91CDBFDD91DEBFFF91EF91DF91D4
:100A4000CF91BF91AF919F918F917F916F915F9166
:100A50004F913F912F911F910F91FF90EF90DF9059
:100A6000CF90BF90AF909F908F907F906F905F904E
:100A70004F903F902F901F900F900CBE0F900BBE89
:100A80000F900FBE0F90089581E0089508950F9282
:100A90000FB6F8940F920BB60F920CB60F921F92EE
:100AA00011242F923F924F925F926F927F928F927A
:100AB0009F92AF92BF92CF92DF92EF92FF920F93ED
:100AC0001F932F933F934F935F936F937F938F93D6
:100AD0009F93AF93BF93CF93DF93EF93FF93A09137
:100AE000521AB091531A0DB60D920EB60D920E9485
:100AF000050EA091521AB091531ACD91CDBFDD9140
:100B0000DEBFFF91EF91DF91CF91BF91AF919F91A8
:100B10008F917F916F915F914F913F912F911F9195
:100B20000F91FF90EF90DF90CF90BF90AF909F908C
:100B30008F907F906F905F904F903F902F901F907D
:100B40000F900CBE0F900BBE0F900FBE0F9008952C
:100B50000F920FB6F8940F920BB60F920CB60F923D
:100B60001F9211242F923F924F925F926F927F9229
:100B70008F929F92AF92BF92CF92DF92EF92FF92AD
:100B80000F931F932F933F934F935F936F937F9395
:100B90008F939F93AF93BF93CF93DF93EF93FF9385
:100BA000A091521AB091531A0DB60D920EB60D9235
:100BB0000E943D0C0E94050EA091521AB091531A4A
:100BC000CD91CDBFDD91DEBFFF91EF91DF91CF9150
:100BD000BF91AF919F918F917F916F915F914F9155
:100BE0003F912F911F910F91FF90EF90DF90CF9049
:100BF000BF90AF909F908F907F906F905F904F903D
:100C00003F902F901F900F900CBE0F900BBE0F9037
:100C10000FBE0F9008950E94A8051895CF93DF93FB
:100C2000DC01CD91DC911197209721F15C964C91DC
:100C30005C9716962D913C911797240F311D1796AE
:100C40003C932E9316971296ED91FC9113972E17C5
:100C50003F0720F01796DC93CE93169716963C919B
:100C6000169717962C91862F972F632F722F50E08F
:100C70000E942C10DF91CF9108950F931F93CF9373
:100C8000DF93EC010FB6F8940F928E8D1816C4F412
:100C90008989882329F414C08989882321F410C004
:100CA0008E010F5E1F4FC8010E94DE0E882311F0D7
:100CB0000E946F0F8E8D81508E8F8E8D181664F36B
:100CC0008FEF8E8F0F900FBE0FB6F8940F928D8D11
:100CD0001816C4F48885882329F414C088858823CD
:100CE00021F410C08E01085F1F4FC8010E94DE0E64
:100CF000882311F00E946F0F8D8D81508D8F8D8D07
:100D0000181664F38FEF8D8F0F900FBEDF91CF9188
:100D10001F910F910895CF93DF93EC012C8D222327
:100D200059F4888199810097E1F58A819B810E941D
:100D3000EB0F1B821A8235C04423B9F48C819D814C
:100D4000422F50E00E942C102C8D8C819D81820FAF
:100D5000911D9D838C832A813B818217930708F123
:100D6000888199819D838C831CC08E819F81422FB5
:100D700050E00E942C104C8D50E0509541955F4FF3
:100D80008E819F81840F951F9F838E832881398157
:100D90008217930730F48A819B81480F591F5F8324
:100DA0004E838A8D8F5F8A8FDF91CF910895CF9385
:100DB000DF93EC010FB6F8940F92488159812B8D87
:100DC00030E0EC8DF0E02E9FC0012F9F900D3E9FF4
:100DD000900D1124840F951F9B838A831A8E5D8347
:100DE0004C83C9010197E89F9001E99F300DF89F5E
:100DF000300D1124240F351F3F832E838FEF8D8FED
:100E00008E8F662361F48885882389F0CE01089649
:100E10000E94DE0E813059F40E94470508C0CE01C1
:100E200008960E94D003CE0141960E94D0030F90F5
:100E30000FBE81E0DF91CF9108950F931F93CF9361
:100E4000DF93182F062F8823F9F08FE190E00E949E
:100E5000CC02EC010097D9F0019FC001112401964A
:100E60000E94CC0299838883009741F01B8F0C8FDE
:100E7000CE0161E00E94D706CE010BC0CE010E94D8
:100E8000F50280E090E005C080E090E002C080E0E4
:100E900090E0DF91CF911F910F9108958F929F92D3
:100EA000BF92CF92DF92EF92FF920F931F93CF9357
:100EB000DF9300D00F920F92CDB7DEB78C014B01BC
:100EC0005D834C83B22EFF24EE24E394CC24DD24F6
:100ED0006894C3F8C80ED91E0FB6F8940F92F801A3
:100EE000928D838D9817A8F4C801B4014B2D0E94F0
:100EF0008B06F8018189882341F0C80141960E9440
:100F0000DE0E813011F40E9447050F900FBE81E084
:100F100052C08C819D81009721F40F900FBE80E01C
:100F20004AC0FF2029F4CE0101960E94260FFE2C14
:100F30000F900FBE0E94250C0FB6F8940F92F80187
:100F4000858D8F3F09F4158EF801868D8F3F09F44A
:100F5000168E0F900FBECE010196BE016C5F7F4FC3
:100F60000E94310F882309F50FB6F8940F92F8010B
:100F7000928D0F900FBEF801838D981781F46C81CC
:100F80007D81C6010E94B20EC8010E943D060E94EA
:100F90000B0D882309F0A0CF0E9447059DCFC80103
:100FA0000E943D060E940B0D97CFC8010E943D068E
:100FB0000E940B0D80E00F900F900F900F900F90FC
:100FC000DF91CF911F910F91FF90EF90DF90CF9025
:100FD000BF909F908F900895CF93DF938FE190E023
:100FE0000E94CC02EC010097F9F01B821A82198250
:100FF00018821D821C821F821E821A8E81E08B8FB6
:101000001C8E8FEF8D8F8E8FCE0108960E94D0039D
:10101000CE0141960E94D003CE0160E070E040E036
:1010200050E020E00E944E078C2F9D2FDF91CF9142
:1010300008950F931F93CF93DF93EC018A019A8D4C
:101040008B8D9817E0F4CE01422F0E948B068E8D77
:101050008F3F81F489898823A1F0CE0141960E94B7
:10106000DE0E882381F00115110579F081E0F80189
:1010700080830CC08E8D8F5F8E8F81E007C080E0F3
:1010800005C081E003C081E001C081E0DF91CF9124
:101090001F910F9108958F929F92BF92CF92DF92EE
:1010A000EF92FF920F931F93CF93DF9300D00F9295
:1010B0000F92CDB7DEB78C014B015D834C83B22E0E
:1010C000FF24EE24E3940F2EF1E1CF2EDD24F02D4A
:1010D000C80ED91E0FB6F8940F92F801828D88239E
:1010E000A1F1E680F780C801B4010E940E06BB2082
:1010F000D1F4F801828D8150828F80819181009797
:1011000029F40E948C0FF80193838283F801808573
:101110008823B9F0C80108960E94DE0E813089F458
:101120000E9447050EC0F801F782E6828189882374
:1011300041F0C80141960E94DE0E882311F00E9402
:1011400047050F900FBE81E05FC08C819D810097A5
:1011500021F40F900FBE80E057C0FF2029F4CE018C
:1011600001960E94260FFE2C0F900FBE0E94250CA8
:101170000FB6F8940F92F801858D8F3F09F4158E04
:10118000F801868D8F3F09F4168E0F900FBECE01A9
:101190000196BE016C5F7F4F0E94310F882371F56D
:1011A0000FB6F8940F92F801828D0F900FBE88232E
:1011B000F9F4F80180819181009751F40FB6F89409
:1011C0000F92F801828193810E94910F0F900FBEC0
:1011D0006C817D81C6010E94B20EC8010E943D064D
:1011E0000E940B0D882309F075CF0E94470572CF2E
:1011F000C8010E943D060E940B0D6CCFC8010E94E1
:101200003D060E940B0D80E00F900F900F900F9005
:101210000F90DF91CF911F910F91FF90EF90DF9092
:10122000CF90BF909F908F9008950F931F93CF936F
:10123000DF93EC018A018A8D8823F1F0CE010E94B0
:101240000E068A8D81508A8F8D8D8F3F81F488851F
:101250008823A1F0CE0108960E94DE0E882381F03B
:101260000115110579F081E0F80180830CC08D8DA6
:101270008F5F8D8F81E007C080E005C081E003C0F3
:1012800081E001C081E0DF91CF911F910F9108951E
:101290000FB6F8940F92FC01828D0F900FBE089547
:1012A000FC01828D0895CF93DF93EC0188819981B1
:1012B0000E94F502CE010E94F502DF91CF910895C0
:1012C000FC01928D81E0911180E00895FC01228D56
:1012D00081E0938D291380E0089528988EBD0DB488
:1012E00007FEFDCF289A0895CF93C82F8AE70E9462
:1012F0006D098C2F0E946D09CF91089587E084B904
:10130000289A83E58CBD81E08DBD8AE00E94740936
:10131000089586E70E946D0908951F93CF93DF9388
:10132000C82FD92F14E089910E946D091150D9F767
:10133000DF91CF911F910895CF93C62F823089F00E
:10134000833018F4813009F505C0833089F084308A
:10135000E1F415C081E00E946D098C2F0E946D0997
:1013600014C082E00E946D098C2F0E946D090DC08F
:1013700083E00E946D098C2F0E946D0906C084E0F5
:101380000E946D098C2F0E946D09CF910895CF9313
:10139000843648F46AE00E942010C92F0E946D092B
:1013A0008C2F0E946D09CF910895CF938436B0F4AD
:1013B000282F30E02A50304052F0C82F80E0CA5029
:1013C0008F5F2C2F30E02A503040CAF702C0C82F60
:1013D00080E00E946D098C2F0E946D09CF910895C5
:1013E000CF93C82F87E70E946D098C2F0E946D094B
:1013F000CF910895CF93DF93EC01E091521AF091D1
:10140000531A9383828380915A1A90915B1AC8175A
:10141000D90768F480915D1A90915E1A6091521A12
:101420007091531A6E5F7F4F0E940B0417C080911A
:101430005F1A9091601A6091521A7091531A6E5F00
:101440007F4F0E940B0480910E0290910F02C817EB
:10145000D90720F4D0930F02C0930E02DF91CF91F1
:101460000895C3E6DAE188818230E8F30E944705F7
:10147000FACF4F925F926F927F928F929F92BF921C
:10148000CF92DF92EF92FF920F931F93CF93DF9350
:101490002C014B01EA013901B02E8AE290E00E9452
:1014A000CC028C01009709F4E3C0C114D10409F007
:1014B000F4C0CE010E94CC026C01F801908F878BA2
:1014C000009729F4C8010E94F5028FEFD6C0C6012B
:1014D00065EA70E0AE010E9435109E012150304057
:1014E000F8018789908D6C01C20ED31EC801499600
:1014F000B40140E150E00E943C10F80110A6CB2D51
:10150000F3E0FB1508F4C3E0F801C68BC1A78824FB
:101510009924689481F8800E911EC4010E94DE0314
:10152000C8010C960E94DE03F8011187008784E051
:1015300090E08C1B910995878487138B028BC601E1
:10154000B201A3010E946F04F80191838083E1142A
:10155000F10419F0F701118300830FB6F8940F928C
:1015600080915C1A8F5F80935C1A8091521A9091DF
:10157000531A0097D9F51093531A0093521A809179
:101580005C1A813009F041C0C0E0D0E0CE01880F84
:10159000991F880F991F880F991F8C0F9D1F8D59B8
:1015A000954E0E94D0032196C430D10579F7C7E843
:1015B000DAE1CE010E94D0030F2EF0E9EF2EFAE11E
:1015C000FF2EF02DC7010E94D00389E99AE10E9405
:1015D000D00382EA9AE10E94D003D093601AC093AC
:1015E0005F1AF0925E1AE0925D1A0FC08091581A4D
:1015F000882359F4E091521AF091531A8689B8164B
:1016000020F01093531A0093521AF8018689909192
:10161000611A981710F48093611A9091621A9F5F73
:101620009093621A9091591A981710F48093591A4E
:1016300090E09C01220F331F220F331F220F331F14
:10164000820F931F8D59954EB4010E94E2030F90B3
:101650000FBE8091581A882369F0E091521AF091D8
:10166000531A86898B1540F40E94470581E005C016
:101670008FEF03C081E001C081E0DF91CF911F9126
:101680000F91FF90EF90DF90CF90BF909F908F9041
:101690007F906F905F904F900895FC01D08EC78A25
:1016A00016CFFC01828593852AE1823A920761F484
:1016B000248935898AE12939380741F081E02115EB
:1016C000310529F080E0089580E0089580E00895D4
:1016D0000F931F93CF93DF93EC010097B9F18091A3
:1016E000521A9091531AC817D90781F10FB6F8947E
:1016F0000F92CE010E94510B813031F58E010E5FA9
:101700001F4FC8010E9448048E899091591A98175A
:1017100010F48093591A90E09C01220F331F220F7E
:10172000331F220F331F820F931F8D59954EB8011F
:101730000E94E203E091521AF091531A9E89868921
:10174000981710F00E9447050F900FBEDF91CF91C0
:101750001F910F910895EF92FF921F93CF93DF9304
:10176000EC010E94510B8130B9F58091571A882302
:1017700051F5E091521AF091531A11E09E89868931
:10178000981708F410E0EE24FF246894E1F8EC0EBA
:10179000FD1EC7010E9448048E899091591A98171E
:1017A00010F48093591A90E09C01220F331F220FEE
:1017B000331F220F331F820F931F8D59954EB70190
:1017C0000E94E2030AC0BE01645F7F4F89E99AE18B
:1017D0000E94E20310E001C010E0812FDF91CF9161
:1017E0001F91FF90EF900895AF92BF92CF92DF923A
:1017F000EF92FF920F9381E39AE069E072E045E592
:1018000050E020E030E000E0EE24FF24CC24DD2492
:10181000AA24BB240E94390A813049F4F8948093A9
:10182000581A10925B1A10925A1A0E9408050F91CA
:10183000FF90EF90DF90CF90BF90AF900895F89415
:101840001092581A0E94460508958091571A8F5F8A
:101850008093571A08950FB6F8940F9280915A1AF0
:1018600090915B1A0F900FBE089580915A1A909133
:101870005B1A089580915C1A08950F931F93CF937C
:10188000DF938091571A882309F0B3C080915A1AC8
:1018900090915B1A019690935B1A80935A1A8091EB
:1018A0005A1A90915B1A009799F580915F1A90915E
:1018B000601A20915D1A30915E1A3093601A20935D
:1018C0005F1A90935E1A80935D1A8091541A8F5F0D
:1018D0008093541AE0915F1AF091601A80818823F6
:1018E00039F48FEF9FEF90930F0280930E0210C098
:1018F000E0915F1AF091601A0580F681E02D068074
:10190000F781E02D8281938190930F0280930E02E4
:1019100020915A1A30915B1A80910E0290910F0219
:101920002817390708F46CC0E0915F1AF091601A2B
:101930008081882399F0E0915F1AF091601A058008
:10194000F681E02DC681D7818A819B8120915A1A28
:1019500030915B1A28173907F8F419C08FEF9FEF01
:1019600090930F0280930E024BC0E0915F1AF091AA
:10197000601A0580F681E02DC681D7818A819B811E
:1019800020915A1A30915B1A2817390728F490933E
:101990000F0280930E0234C08E010E5F1F4FC801EC
:1019A0000E9448048C899D89009721F0CE010C96F5
:1019B0000E9448048E899091591A981710F48093C8
:1019C000591A90E09C01220F331F220F331F220F60
:1019D000331F820F931F8D59954EB8010E94E20369
:1019E000E0915F1AF091601A8081882309F0BDCFE1
:1019F000B5CF8091561A8F5F8093561A0E94B30319
:101A00008091561A882311F40E94B303DF91CF917D
:101A10001F910F910895AF92BF92CF92DF92EF92F4
:101A2000FF920F931F93CF93DF930FB6F8940F920B
:101A30008091571A81508093571A8091571A8823A2
:101A400009F069C080915C1A882381F567C0D601CE
:101A5000ED91FC91C681D781CE010C960E9448047D
:101A60008E010E5F1F4FC8010E9448048E8990911D
:101A7000591A981710F48093591A90E09C01220F7C
:101A8000331F220F331F220F331F820F931F8D59D5
:101A9000954EB8010E94E203E091521AF091531A58
:101AA0009E898689981788F0BA2C0FC0BB240F2E08
:101AB000F9E9EF2EFAE1FF2EF02D0F2EFEE9CF2EE1
:101AC000FAE1DF2EF02DAA24A394F7018081882368
:101AD00009F0BDCF8091561A882381F08091561A63
:101AE000882399F00E943D0C8091561A8150809372
:101AF000561A8091561A8823A9F707C0F1E0BF163D
:101B000021F08091551A813041F41092551A0E94AB
:101B1000470581E003C080E001C080E00F900FBE68
:101B2000DF91CF911F910F91FF90EF90DF90CF90B9
:101B3000BF90AF900895CF93DF93EC010097B1F081
:101B40000E94250C80915A1A90915B1AC80FD91FD8
:101B50008091521A9091531A02960E944804CE0125
:101B60000E94FA090E940B0D882311F40E94470578
:101B7000DF91CF9108950F931F93CF93DF938C0143
:101B8000EB010E94250CF80180819181C80FD91FBB
:101B900020915A1A30915B1A2817390768F4C81730
:101BA000D90750F580915A1A90915B1AD183C0835E
:101BB0008C179D07B0F40BC0C817D907C8F08091E7
:101BC0005A1A90915B1A8C179D0790F015C080915E
:101BD000521A9091531A02960E944804CE010E9414
:101BE000FA090E940B0D882359F40E94470508C08A
:101BF000F801D183C083EBCFF801D183C083F1CF4B
:101C0000DF91CF911F910F9108958091571A8823EA
:101C100099F48091591A90E0FC01EE0FFF1FEE0F2E
:101C2000FF1FEE0FFF1F8E0F9F1FFC01ED59F54E9A
:101C30008081882329F01BC081E08093551A089584
:101C40008091591A81508093591A8091591A90E0C5
:101C5000FC01EE0FFF1FEE0FFF1FEE0FFF1F8E0F99
:101C60009F1FFC01ED59F54E8081882349F3809137
:101C7000591A90E0FC01EE0FFF1FEE0FFF1FEE0F51
:101C8000FF1FE80FF91FED59F54EA181B2811296A1
:101C90000D90BC91A02DB283A183CF010396A8170C
:101CA000B90731F412968D919C9113979283818399
:101CB0000180F281E02D868197819093531A809361
:101CC000521A0895EF92FF920F931F93CF93DF93D1
:101CD0007C010FB6F8940F928091521A9091531A8A
:101CE000E816F90621F0E114F10441F402C0EE24F3
:101CF000FF24C091521AD091531A01C0E7018E01FE
:101D00000E5F1F4FC8010E9448048C899D8900976F
:101D100021F0CE010C960E94480482EA9AE1B801B3
:101D20000E94E2030F900FBEE114F104A1F4809130
:101D3000581A882319F00E9447050DC09091A21AE5
:101D400080915C1A981729F41092531A1092521A23
:101D500002C00E94050EDF91CF911F910F91FF905D
:101D6000EF900895CF93DF93EB016091521A709139
:101D7000531A645F7F4F0E940B048091521A909116
:101D8000531A02960E9448048FEFCF3FD80759F4A8
:101D90006091521A7091531A6E5F7F4F82EA9AE1F6
:101DA0000E94E20308C080915A1A90915B1A8C0F2E
:101DB0009D1F0E94FA09DF91CF9108950F931F9301
:101DC000CF93DF93DC011596ED91FC911697068178
:101DD0001781E8012C96CE010E9448048091571A81
:101DE0008823E9F4E8012296CE010E944804F80114
:101DF00086899091591A981710F48093591A90E097
:101E00009C01220F331F220F331F220F331F820F1B
:101E1000931F8D59954EBE010E94E20305C089E9CA
:101E20009AE1BE010E94E203E091521AF091531A26
:101E300081E0D80156962C9156979689291708F477
:101E400080E0DF91CF911F910F910895FC01809167
:101E5000541A808380915A1A90915B1A92838183DD
:101E60000895FC01DB010FB6F8940F924D915C913F
:101E700011976FEF4F3F560751F18091541A90819F
:101E8000981749F020915A1A30915B1A81819281FA
:101E900028173907F0F480915A1A90915B1A218122
:101EA0003281821B930B84179507A8F480915A1AEC
:101EB00090915B1AB901681B790BCB01840F951FB8
:101EC0008D939C93CF010E94260F80E005C080E097
:101ED00003C081E001C081E00F900FBE089581E052
:101EE0008093551A0895009729F4E091521AF091C1
:101EF000531A01C0FC010788F08DE02D8081853ADE
:101F000041F4319680E090E001962191253AE1F389
:101F1000089580E090E008958091521A9091531AAC
:101F200008950F931F93CF93DF93EC01009709F46B
:101F30004DC08E89E091521AF091531A96898917F3
:101F400008F044C0E091521AF091531A968924E0A7
:101F500030E0291B31093D872C8790E09C01220F3E
:101F6000331F220F331F220F331F820F931F8D59F0
:101F7000954E2A853B852817390711F58E010E5F8E
:101F80001F4FC8010E944804E091521AF091531A61
:101F900086898E8B9091591A981710F48093591A4C
:101FA00090E09C01220F331F220F331F220F331F9B
:101FB000820F931F8D59954EB8010E94E20306C00F
:101FC000E091521AF091531A86898E8BDF91CF914E
:101FD0001F910F9108950F931F93CF93DF93EC01FF
:101FE000009749F19E8989A5981729F18E010E5F06
:101FF0001F4FC8010E94480449A54E8B242F30E092
:1020000084E090E0821B930B9D878C878091591A06
:10201000841710F44093591AC901880F991F880F2B
:10202000991F880F991F280F391FC9018D59954E87
:10203000B8010E94E203DF91CF911F910F910895A3
:10204000991B79E004C0991F961708F0961B881F0A
:102050007A95C9F780950895FB01DC0102C00190D3
:102060000D9241505040D8F70895DC0101C06D93A6
:1020700041505040E0F70895FB01DC0141505040D1
:1020800048F001900D920020C9F701C01D92415007
:0A2090005040E0F70895F894FFCFE8
:10209A00544D52205461736B0049444C4500FFFF74
:00000001FF
